:1000000009C021C020C020C01EC01DC01CC01BC014
:100010001AC019C011241FBECFE9CDBF10E0A0E661
:10002000B0E0E8E4F1E002C005900D92A637B10718
:10003000D9F710E0A6E7B0E001C01D92A737B107DD
:10004000E1F713D07FC0DCCF1F920F920FB60F9253
:1000500011248F93809176008F5F809376008F912B
:100060000F900FBE0F901F901895B998B998C1982E
:10007000C198B89AB89ABA9ABA9A83E083BF19BE5F
:100080007894B19BFECFB19BFECF12BE109276004A
:1000900020E030E040E050E004C0809176008135FF
:1000A00038F4B199FACF04C080917600813510F40C
:1000B000B19BFACF8091760092B7782F60E0FB0178
:1000C000E90FF11D4E0F5F1F12BE80917600813542
:1000D00038F4109276002F5F3F4F2032310508F33D
:1000E000C09AC29AC09AC29A80917600813548F629
:1000F0009A0195E0369527959A95E1F7ACE6B0E040
:10010000E0E0F0E08D919C9111972817390728F0D5
:1001100031961296E530F105A9F7EE0FFF1FE05A70
:10012000FF4F40815181C90101974817590708F0D5
:10013000C098C0982F5F3F4F2417350708F0C2982A
:08014000C2989FCFF894FFCF95
:10014800E3002F017E01FE01A9028E030401520182
:06015800B50148020B0393
:00000001FF
